:100000000C9432000C943C000C943C000C943C008A
:100010000C943C000C943C000C943C000C943C0070
:100020000C943C000C943C000C943C000C943C0060
:100030000C943C000C943C000C943C000C943C0050
:100040000C943C000C943C000C943C000C943C0040
:100050000C943C00C80CCA0CCE0CD20CD60CDA0C9A
:10006000DE0CE20C11241FBECFE5D8E0DEBFCDBF11
:100070000E94DB010C94E20D0C9400000E94C90B5D
:1000800064E080E00E948D0C80E00E94510381E0DA
:100090000E94510382E00E94510383E00E945103B9
:1000A00087E00E94510384E00E94510385E00E9492
:1000B000510386E00E94510387E00E945103089596
:1000C0000E94050B64E080E00E948D0C80E00E949D
:1000D000510381E00E94510385E00E94510382E0B8
:1000E0000E94510383E00E94510385E00E94510366
:1000F00086E00E94510387E00E94510367E081E09F
:100100000E948D0C84E00E94510308950E94410AD0
:1001100064E080E00E948D0C80E00E94510381E049
:100120000E94510382E00E94510383E00E94510328
:1001300084E00E94510385E00E94510386E00E9402
:10014000510366E081E00E948D0C87E00E9451031C
:1001500008950E94AD0965E080E00E948D0C80E06A
:100160000E94510381E00E94510382E00E945103EA
:1001700083E00E94510384E00E94510385E00E94C5
:10018000510382E00E94510308950E94610966E0D4
:1001900080E00E948D0C80E00E94510381E00E946B
:1001A000510382E00E94510308950E949D0863E07C
:1001B00080E00E948D0C80E00E94510381E00E944B
:1001C000510382E00E94510383E00E94510384E0C6
:1001D0000E94510385E00E94510386E00E94510372
:1001E00087E00E94510308950E94D90764E080E0EF
:1001F0000E948D0C80E00E94510381E00E94510317
:1002000082E00E94510383E00E94510384E00E9437
:10021000510385E00E94510386E00E94510387E06C
:100220000E94510308950E94150764E080E00E9437
:100230008D0C80E00E94510381E00E94510382E016
:100240000E94510383E00E94510384E00E94510305
:100250006AE080E00E948D0C85E00E94510386E0F8
:100260000E94510387E00E94510308950E94810675
:1002700065E080E00E948D0C80E00E94510381E0E7
:100280000E94510382E00E94510383E00E945103C7
:1002900084E00E94510385E00E94510308950E946A
:1002A000D50565E080E00E948D0C80E00E9451033E
:1002B00081E00E94510368E080E00E948D0C82E0A2
:1002C0000E94510383E00E94510384E00E94510385
:1002D00085E00E94510368E081E00E948D0C86E079
:1002E0000E94510308950E94410565E080E00E944C
:1002F0008D0C85E00E94510384E00E94510383E04D
:100300000E94510369E080E00E948D0C82E00E940F
:10031000510381E00E94510380E00E94510308953F
:100320000E94950465E080E00E948D0C86E00E94AA
:10033000510385E00E94510384E00E94510383E051
:100340000E94510381E00E94510382E00E94510308
:1003500080E00E94510308950E94010465E080E05E
:100360000E948D0C85E00E94510381E00E945103A0
:1003700084E00E94510383E00E94510381E00E94C7
:10038000510382E00E94510380E00E9451030895CE
:100390000E949D0367E080E00E948D0C82E00E9435
:1003A000510381E00E94510383E00E94510380E0E9
:1003B0000E94510308950E94FE020E949903C1E029
:1003C00080E00E949B0C0E94F40C0E94F40C7C01C3
:1003D00082E00E949B0C0E94F40C0E94F40C8C01A1
:1003E00083E00E949B0C0E94F40C0E94F40CAC0170
:1003F0002C2F82E7E81681E0F80608F020E09C2F19
:100400000436110508F090E03C2F403A510508F001
:1004100030E0892F822339F0332329F00E94990399
:100420000E94C80199C08C2F0A36110508F480E09B
:10043000782F72236C2F463A510508F460E0772339
:1004400039F0662329F00E9499030E94C50084C0F8
:10045000772339F0332329F00E9499030E94360153
:100460007BC07C2FA1EEEA16A1E0FA0608F470E04A
:10047000972339F0662329F00E9499030E94A9006E
:100480006BC0872339F0662329F00E9499030E94EC
:10049000600062C0FC2F0536110508F4F0E0EC2F77
:1004A000A3E7EA16A1E0FA0608F4E0E0EF23AC2F98
:1004B000413A510508F4A0E0EE2339F0AA2329F0CF
:1004C0000E9499030E94D50047C0882339F0332346
:1004D00029F00E9499030E9413013EC0992339F02C
:1004E000332329F00E9499030E944F0135C02F2326
:1004F00039F0332329F00E9499030E9473012CC024
:10050000762339F0FF2329F00E9499030E94F4001A
:1005100023C0222339F0AA2329F00E9499030E94C4
:1005200086001AC0EE2339F0332329F00E94990384
:100530000E94AC0111C0EE2339F0662329F00E941D
:1005400099030E94900108C0882331F0AA2321F06A
:100550000E9499030E943E00EFEF23ED80E3E150FB
:1005600020408040E1F700C000002ACFCF93C82F81
:1005700040E061E081E00E946B0D40E062E081E0DC
:100580000E946B0D40E063E081E00E946B0D8BB335
:100590009C2F907F8F70892B8BBB41E063E081E0C3
:1005A0000E946B0D8FE99FE00197F1F700C00000FA
:1005B00040E063E081E00E946B0D2BB330E1C39F0C
:1005C000C0011124922F9F70892B8BBB41E063E007
:1005D00081E00E946B0D8FE99FE00197F1F700C069
:1005E000000040E063E081E00E946B0D8FE39FE13B
:1005F0000197F1F700C00000CF91089541E061E05C
:1006000081E00E94FA0C41E062E081E00E94FA0C75
:1006100041E063E081E00E94FA0C41E060E080E0AC
:100620000E94FA0C41E061E080E00E94FA0C41E097
:1006300062E080E00E94FA0C41E063E080E00E940A
:10064000FA0C41E064E080E00E94FA0C41E065E0D1
:1006500080E00E94FA0C41E066E080E00E94FA0C23
:1006600041E067E080E00E94FA0C83E30E94B6025A
:1006700082E30E94B60288E20E94B60281E00E94F4
:10068000B60282E00E94B6028CE00E94B60286E0CA
:100690000E94B6028FE39FE10197F1F700C00000CE
:1006A0000895CF93C82F41E061E081E00E946B0D77
:1006B00040E062E081E00E946B0D40E063E081E099
:1006C0000E946B0D8BB39C2F907F8F70892B8BBBFF
:1006D00041E063E081E00E946B0D8FE99FE00197AC
:1006E000F1F700C0000040E063E081E00E946B0D84
:1006F0002BB330E1C39FC0011124922F9F70892B2F
:100700008BBB41E063E081E00E946B0D8FE99FE0CD
:100710000197F1F700C0000040E063E081E00E9433
:100720006B0D8FE39FE10197F1F700C00000CF91BF
:10073000089581E00E94B602089580E40E94B60206
:1007400086E00E94510384E00E9451038EE00E94E3
:10075000510380E00E94510384E00E94510384E031
:100760000E94510384E00E94510384E00E945103DF
:1007700080E00E94510380E00E94510380E00E94CB
:10078000510380E00E94510381E00E94510381E007
:100790000E9451038FE10E94510384E00E945103A3
:1007A00081E00E9451038DE00E94510389E00E9484
:1007B00051038DE10E94510381E00E94510381E1C8
:1007C0000E9451038FE10E94510380E00E94510377
:1007D00080E00E94510380E00E94510380E00E946B
:1007E000510380E00E9451038EE00E94510381E09A
:1007F0000E9451038FE10E94510380E00E94510347
:10080000089580E40E94B60286E00E94510384E0CD
:100810000E9451038EE00E94510380E00E94510328
:1008200084E00E94510384E00E94510384E00E940E
:10083000510384E00E94510384E00E94510384E04C
:100840000E94510384E00E94510384E00E945103FE
:1008500084E00E94510384E00E94510387E00E94DB
:10086000510380E00E94510380E00E94510380E028
:100870000E94510380E00E94510384E00E945103D2
:1008800081E00E94510381E00E9451038FE10E94A8
:10089000510380E00E94510380E00E94510380E0F8
:1008A0000E94510380E00E94510380E00E945103A6
:1008B0008EE00E94510381E00E9451038FE10E946B
:1008C000510384E00E94510380E00E94510380E0C4
:1008D0000E94510380E00E94510380E00E94510376
:1008E00087E00E94510384E00E9451038FE10E943F
:1008F000510380E00E94510380E00E94510380E098
:100900000E94510384E00E94510381E10E9451033F
:1009100081E10E94510381E10E9451038FE10E9415
:10092000510380E00E945103089580E40E94B602C2
:1009300086E00E94510384E00E9451038EE00E94F1
:10094000510380E00E94510384E00E94510384E03F
:100950000E94510384E00E94510384E00E945103ED
:1009600084E00E94510384E00E94510384E00E94CD
:10097000510384E00E94510384E00E94510384E00B
:100980000E94510387E00E94510380E00E945103BE
:1009900080E00E94510380E00E94510380E00E94A9
:1009A000510384E00E94510381E00E94510381E0E1
:1009B0000E9451038FE10E94510380E00E94510385
:1009C00080E00E94510380E00E94510380E00E9479
:1009D000510380E00E94510385E10E94510385E1AB
:1009E0000E9451038FE10E94510380E00E94510355
:1009F00080E00E94510380E00E94510380E00E9449
:100A0000510380E00E94510387E00E94510384E07B
:100A10000E9451038FE10E94510380E00E94510324
:100A200080E00E94510380E00E94510380E00E9418
:100A3000510381E00E94510381E00E94510381E053
:100A40000E9451038FE10E9451038AE00E945103EA
:100A500080E00E94510380E00E94510380E00E94E8
:100A6000510384E00E94510382E00E94510381E01F
:100A70000E9451038FE10E94510380E00E945103C4
:100A8000089580E40E94B60280E00E94510380E055
:100A90000E94510380E00E94510387E00E945103AD
:100AA00084E00E9451038FE10E94510380E00E9484
:100AB000510380E00E94510380E00E94510380E0D6
:100AC0000E94510380E00E94510380E00E94510384
:100AD0008EE00E94510381E10E9451038EE00E944A
:100AE000510380E00E94510381E00E94510381E0A4
:100AF0000E94510381E00E94510381E00E94510352
:100B000081E00E94510381E10E9451038FE10E9424
:100B1000510380E00E94510380E00E94510380E075
:100B20000E94510380E00E94510380E00E94510323
:100B30008EE00E94510381E00E9451038FE10E94E8
:100B4000510384E00E94510380E00E94510380E041
:100B50000E94510380E00E94510381E00E945103F2
:100B600081E00E94510381E00E9451038FE10E94C5
:100B700051038AE00E94510380E00E94510380E00B
:100B80000E94510380E00E94510384E00E945103BF
:100B900082E00E94510381E00E9451038FE10E9494
:100BA000510380E00E945103089580E40E94B60240
:100BB00081E00E9451038DE00E94510389E00E9470
:100BC00051038DE10E94510381E00E94510381E1B4
:100BD0000E9451038FE10E94510380E00E94510363
:100BE00081E00E94510381E00E94510381E00E9454
:100BF000510381E00E94510381E00E94510381E092
:100C00000E9451038FE10E94510380E00E94510332
:100C100082E00E94510382E00E94510382E00E9420
:100C2000510382E00E94510382E00E94510382E05E
:100C30000E94510382E00E94510380E00E94510310
:100C400080E00E94510380E00E94510380E00E94F6
:100C5000510380E00E94510380E00E94510380E034
:100C60000E9451038FE00E94510380E10E945103D2
:100C700080E00E9451038FE10E94510380E10E94B5
:100C8000510388E00E94510384E00E94510382E0F6
:100C90000E9451038FE10E94510380E00E945103A2
:100CA00080E00E94510384E00E9451038AE00E9488
:100CB000510380E00E94510385E10E94510385E1C8
:100CC0000E9451038FE10E94510380E00E94510372
:100CD00081E00E94510382E00E94510384E00E945F
:100CE000510380E00E94510380E00E94510380E0A4
:100CF0000E94510380E00E94510380E00E94510352
:100D0000089580E40E94B6028FE10E94510380E1C1
:100D10000E94510380E10E94510388E00E94510328
:100D200084E00E94510384E00E94510380E00E940D
:100D3000510384E00E94510382E00E94510382E04B
:100D40000E94510382E00E94510382E00E945103FD
:100D500082E00E94510382E00E94510382E00E94DF
:100D6000510380E00E94510380E00E94510380E023
:100D70000E94510384E00E94510380E00E945103CD
:100D800084E00E94510384E00E9451038FE10E949D
:100D9000510380E00E94510380E00E94510380E0F3
:100DA0000E94510380E00E9451038FE10E94510391
:100DB00085E10E94510385E10E9451038FE10E9469
:100DC000510380E00E94510384E00E94510384E0BB
:100DD0000E94510384E00E94510384E00E94510369
:100DE00084E00E94510384E00E94510387E00E9446
:100DF000510380E00E94510380E00E94510380E093
:100E00000E94510380E00E94510380E00E94510340
:100E100080E00E9451038EE00E94510381E10E9414
:100E200051038EE00E945103089580E40E94B602AF
:100E30008FE10E94510380E10E94510380E10E94F2
:100E4000510388E00E94510384E00E94510384E032
:100E50000E94510380E00E94510384E00E945103EC
:100E600081E00E9451038DE00E94510389E00E94BD
:100E700051038DE10E94510381E00E94510381E101
:100E80000E9451038FE10E94510380E00E945103B0
:100E900081E00E94510381E00E94510381E00E94A1
:100EA000510381E00E94510381E00E94510381E0DF
:100EB0000E9451038FE10E94510380E00E94510380
:100EC00084E00E94510384E00E94510384E00E9468
:100ED000510384E00E94510384E00E94510384E0A6
:100EE0000E94510387E00E94510380E00E94510359
:100EF00080E00E94510380E00E94510380E00E9444
:100F0000510380E00E9451038EE00E94510381E072
:100F10000E9451038FE10E94510380E00E9451031F
:100F200080E00E94510380E00E94510382E00E9411
:100F3000510380E00E94510387E10E94510385E143
:100F40000E9451038FE10E94510380E00E945103EF
:100F500080E00E94510380E00E94510380E00E94E3
:100F6000510380E00E94510381E00E94510381E01F
:100F70000E9451038FE10E9451038AE00E945103B5
:100F800080E00E9451038FE10E94510380E10E94A2
:100F9000510388E00E94510384E00E94510382E0E3
:100FA0000E9451038FE10E94510380E00E9451038F
:100FB000089580E40E94B6028FE10E94510380E10F
:100FC0000E94510380E10E94510388E00E94510376
:100FD00084E00E94510384E00E94510380E00E945B
:100FE000510384E00E94510380E00E94510380E09D
:100FF0000E94510380E00E94510380E00E9451034F
:1010000082E10E94510382E10E9451038FE10E941C
:10101000510384E00E94510380E00E94510380E06C
:101020000E94510380E00E9451038FE10E9451030E
:1010300085E10E94510385E10E9451038FE10E94E6
:10104000510380E00E94510380E00E94510380E040
:101050000E94510384E00E94510380E00E945103EA
:1010600084E00E94510382E00E9451038FE10E94BC
:10107000510380E00E94510380E00E94510380E010
:101080000E9451038AE00E94510380E00E945103B4
:1010900081E00E94510381E00E9451038FE10E9490
:1010A000510380E00E94510380E00E94510380E0E0
:1010B0000E94510384E00E94510381E10E94510388
:1010C00081E10E94510381E10E9451038FE10E945E
:1010D000510380E00E94510380E00E94510380E0B0
:1010E0000E94510380E00E94510381E00E9451035D
:1010F00081E00E9451038FE10E9451038AE00E9427
:10110000510380E00E94510386E00E94510384E075
:101110000E9451038EE00E94510380E00E9451031F
:1011200084E00E94510384E00E94510384E00E9405
:10113000510384E00E945103089580E40E94B602A6
:1011400084E00E94510384E00E94510384E00E94E5
:10115000510384E00E94510384E00E94510384E023
:101160000E94510380E00E94510384E00E945103D9
:1011700080E00E94510380E00E94510380E00E94C1
:10118000510380E00E94510381E10E94510381E1FB
:101190000E9451038FE10E94510384E00E94510399
:1011A00080E00E94510380E00E94510380E00E9491
:1011B000510380E00E94510382E00E94510382E0CB
:1011C0000E9451038FE10E9451038AE00E94510363
:1011D00080E00E94510380E00E94510380E00E9461
:1011E00051038FE10E94510385E10E94510385E183
:1011F0000E9451038FE10E94510380E00E9451033D
:1012000080E00E94510380E00E94510380E00E9430
:10121000510380E00E94510381E00E94510382E06B
:101220000E94510384E00E94510388E00E94510310
:1012300082E00E94510382E00E94510382E00E94FA
:10124000510382E00E94510382E00E94510382E038
:101250000E94510382E00E94510380E00E945103EA
:1012600080E00E94510380E00E94510388E00E94C8
:10127000510380E00E94510388E00E94510384E002
:101280000E9451038FE10E94510380E00E945103AC
:1012900080E00E94510380E00E94510380E00E94A0
:1012A00051038FE10E94510385E10E94510385E1C2
:1012B0000E9451038FE10E94510380E00E9451037C
:1012C000089580E40E94B60280E00E94510380E00D
:1012D0000E9451038AE00E94510380E00E94510362
:1012E00081E10E94510381E10E9451038FE10E943C
:1012F000510380E00E94510380E00E94510380E08E
:101300000E94510380E00E94510384E00E94510337
:1013100081E00E94510381E00E9451038FE10E940D
:10132000510380E00E94510386E00E94510384E053
:101330000E9451038EE00E94510380E00E945103FD
:1013400084E00E94510384E00E94510384E00E94E3
:10135000510384E00E945103089580E40E94B60284
:1013600081E00E9451038DE00E94510389E00E94B8
:1013700051038DE10E94510381E00E94510381E1FC
:101380000E9451038FE10E94510380E00E945103AB
:1013900080E00E94510380E00E94510380E00E949F
:1013A000510380E00E94510381E00E94510381E0DB
:1013B0000E9451038FE10E94510384E00E94510377
:1013C00080E00E94510380E00E94510380E00E946F
:1013D000510380E00E9451038EE00E94510381E09E
:1013E0000E9451038FE10E94510380E00E9451034B
:1013F00086E00E94510384E00E9451038EE00E9427
:10140000510380E00E94510384E00E94510384E074
:101410000E94510384E00E94510384E00E94510322
:1014200084E00E94510384E00E94510384E00E9402
:10143000510384E00E94510384E00E94510384E040
:101440000E94510387E00E94510380E00E945103F3
:1014500080E00E94510380E00E9451038AE00E94D4
:10146000510380E00E9451038EE00E9451038AE004
:101470000E9451038FE10E94510380E00E945103BA
:10148000089580E40E94B60280E00E94510380E04B
:101490000E94510380E00E94510384E00E945103A6
:1014A00081E10E94510381E10E9451038FE10E947A
:1014B000510380E00E94510380E00E94510380E0CC
:1014C0000E94510380E00E94510381E00E94510379
:1014D00081E00E94510381E00E9451038FE10E944C
:1014E00051038AE00E94510380E00E94510380E092
:1014F0000E94510380E00E94510380E00E9451034A
:1015000082E00E94510380E00E94510383E00E9428
:10151000510382E00E94510380E00E94510380E069
:101520000E94510380E00E94510380E00E94510319
:101530008EE00E94510381E00E9451038FE10E94DE
:10154000510380E00E94510384E00E94510384E033
:101550000E94510384E00E94510384E00E945103E1
:1015600084E00E94510384E00E94510387E00E94BE
:10157000510380E00E94510380E00E94510380E00B
:101580000E94510380E00E94510384E00E945103B5
:1015900081E00E94510381E00E9451038FE10E948B
:1015A000510380E00E94510386E00E94510384E0D1
:1015B0000E9451038EE00E94510380E00E9451037B
:1015C00084E00E94510384E00E94510384E00E9461
:1015D000510384E00E94510384E00E94510388E09B
:1015E0000E94510380E10E94510380E00E94510358
:1015F00080E00E94510380E00E94510380E00E943D
:10160000510380E00E945103089580E40E94B602D5
:1016100081E00E94510381E00E94510381E00E9419
:10162000510381E00E94510381E00E94510381E057
:101630000E94510381E00E94510380E00E94510307
:1016400080E00E94510380E00E94510380E00E94EC
:10165000510380E00E94510382E00E94510382E026
:101660000E9451038FE10E94510384E00E945103C4
:1016700080E00E94510380E00E94510384E10E94B7
:10168000510380E00E94510382E00E94510382E0F6
:101690000E9451038EE10E94510380E00E94510399
:1016A00080E00E94510380E00E94510380E00E948C
:1016B000510380E00E94510380E00E94510380E0CA
:1016C0000E9451038FE00E94510380E10E94510368
:1016D00081E00E94510382E00E94510384E00E9455
:1016E000510380E00E94510380E00E94510380E09A
:1016F0000E94510380E00E94510380E00E94510348
:1017000080E00E94510380E00E94510380E00E942B
:10171000510380E00E9451038EE00E94510388E053
:101720000E9451038FE10E94510380E00E94510307
:1017300080E00E94510384E00E9451038AE00E94ED
:10174000510380E00E94510385E10E94510385E12D
:101750000E9451038FE10E94510380E00E945103D7
:1017600086E00E94510384E00E9451038EE00E94B3
:10177000510380E00E94510384E00E94510384E001
:101780000E94510384E00E94510384E00E945103AF
:10179000089580E40E94B60280E00E94510380E038
:1017A0000E94510380E00E94510380E00E94510397
:1017B00081E00E94510381E00E94510382E00E9477
:1017C000510384E00E94510380E00E94510380E0B5
:1017D0000E94510380E00E94510387E00E94510360
:1017E00085E00E94510387E00E94510382E00E943D
:1017F000510384E00E94510380E00E94510380E085
:101800000E94510384E00E94510381E00E94510331
:1018100081E00E9451038FE10E94510380E00E9409
:10182000510380E00E94510381E00E94510381E056
:101830000E94510381E00E94510381E00E94510304
:1018400081E00E9451038FE10E94510380E00E94D9
:10185000510380E00E94510380E00E94510380E028
:101860000E9451038CE00E94510388E00E945103C2
:101870008CE10E94510380E00E94510381E10E94AB
:1018800051038FE10E94510380E00E94510380E0E8
:101890000E94510384E00E94510380E00E945103A2
:1018A0008EE00E9451038AE00E9451038FE10E9462
:1018B000510380E00E94510380E00E94510382E0C6
:1018C0000E94510382E00E94510382E00E94510372
:1018D0008FE00E94510389E00E9451038FE10E9432
:1018E000510380E00E94510384E00E94510384E090
:1018F0000E94510384E00E94510384E00E9451033E
:1019000084E00E94510384E00E94510384E00E941D
:10191000510380E00E9451030895811105C0862F74
:1019200080680E94B6020895813021F4862F806C71
:101930000E94B6020895CF93C82F40E060E080E097
:101940000E94FA0C40E062E080E00E94FA0C40E065
:1019500063E080E00E94FA0C3F983E9A3D983C98E4
:101960003B983A983998389837982FEF89E698E15C
:10197000215080409040E1F700C000008C2F90E0A3
:101980008830910510F5FC01E65DFF4F0C94DC0DED
:101990003E9A1BC087B1816487B917C087B1826442
:1019A00087B913C087B1836487B90FC087B18464D6
:1019B00087B90BC087B1856487B907C087B18664D2
:1019C00087B903C087B1876487B92FEF89E698E1AB
:1019D000215080409040E1F700C00000379A86B166
:1019E000876A86B9CF910895369A349BFECF84B129
:1019F00095B10895442319F04130C9F1089581301B
:101A000091F028F08230D9F0833029F108952AB37B
:101A100081E090E002C0880F991F6A95E2F78095F7
:101A200082238ABB089527B381E090E002C0880F2B
:101A3000991F6A95E2F78095822387BB089524B3A6
:101A400081E090E002C0880F991F6A95E2F78095C7
:101A5000822384BB089521B381E090E002C0880F07
:101A6000991F6A95E2F78095822381BB08958130A2
:101A700089F028F08230C9F0833011F108952AB33B
:101A800081E090E002C0880F991F6A95E2F7822BEF
:101A90008ABB089527B381E090E002C0880F991FA8
:101AA0006A95E2F7822B87BB089524B381E090E02A
:101AB00002C0880F991F6A95E2F7822B84BB0895B4
:101AC00021B381E090E002C0880F991F6A95E2F788
:101AD000822B81BB0895442319F04130C9F1089548
:101AE000813091F028F08230D9F0833029F10895C7
:101AF0002BB381E090E002C0880F991F6A95E2F74E
:101B0000809582238BBB089528B381E090E002C0CA
:101B1000880F991F6A95E2F78095822388BB089504
:101B200025B381E090E002C0880F991F6A95E2F723
:101B30008095822385BB089522B381E090E002C0A6
:101B4000880F991F6A95E2F78095822382BB0895DA
:101B5000813089F028F08230C9F0833011F1089586
:101B60002BB381E090E002C0880F991F6A95E2F7DD
:101B7000822B8BBB089528B381E090E002C0880FD0
:101B8000991F6A95E2F7822B88BB089525B381E0FF
:101B900090E002C0880F991F6A95E2F7822B85BBFF
:101BA000089522B381E090E002C0880F991F6A95E2
:101BB000E2F7822B82BB0895EE0FFF1F0590F49190
:081BC000E02D0994F894FFCF19
:00000001FF
